:020000040000FA
:040000000DEF00F010
:020008001000E6
:0800180010009368966A956AD6
:10002000836AF46A84829494829481A006D081B217
:10003000FCD70A0EF36E64D00000838EA1EC00F0B2
:10004000070EF36E00D08342A2EC01F0F32EFBD733
:100050002AEC00F08346A2EC01F08346A2EC01F00A
:100060008346A2EC01F08346A2EC01F08346A2ECA9
:1000700001F08346A2EC01F08346A2EC01F000D02F
:100080008368A2EC01F0836A00D0AA0EE8CF83FF58
:10009000A2EC01F0550EE8CF83FFA2EC01F0AA0E0E
:1000A000E8CF83FFA2EC01F0550EE8CF83FFA2EC6E
:1000B00001F0810EE8CF83FFA2EC01F0420EE8CF01
:1000C00083FFA2EC01F0240EE8CF83FFA2EC01F045
:1000D000180EE8CF83FFA2EC01F0240EE8CF83FFD7
:1000E000A2EC01F0420EE8CF83FFA2EC01F0810EFA
:1000F000E8CF83FFA2EC01F0836AC7D700001200AB
:10010000F4CF83FFA1EC00F0F42AF32EF9D79AEC98
:1001100000F0F46A836A01D012008368A2EC01F057
:10012000836AA2EC01F09AEC00F08368A1EC00F085
:10013000836A12008284A1EC00F08294A1EC00F0AA
:100140001200500E016EFA0E006E0000000000005A
:10015000000000000000000000000000000000009F
:10016000000000000000000000000000000000008F
:10017000000000000000000000000000000000007F
:10018000000000000000000000000000000000006F
:10019000000000000000000000000000000000005F
:1001A000000000000000000000000000000000004F
:1001B000000000000000000000000000000000003F
:1001C000000000000000000000000000000000002F
:1001D000000000000000000000000000000000001F
:1001E000000000000000000000000000000000000F
:1001F00000000000000000000000000000000000FF
:1002000000000000000000000000000000000000EE
:1002100000000000000000000000000000000000DE
:1002200000000000000000000000000000000000CE
:1002300000000000000000000000000000000000BE
:1002400000000000000000000000000000000000AE
:10025000000000000000000000000000000000009E
:10026000000000000000000000000000000000008E
:10027000000000000000000000000000000000007E
:10028000000000000000000000000000000000006E
:10029000000000000000000000000000000000005E
:1002A000000000000000000000000000000000004E
:1002B000000000000000000000000000000000003E
:1002C000000000000000000000000000000000002E
:1002D000000000000000000000000000000000001E
:1002E000000000000000000000000000000000000E
:1002F00000000000000000000000000000000000FE
:1003000000000000000000000000000000000000ED
:1003100000000000000000000000000000000000DD
:1003200000000000000000000000000000000000CD
:100330000000000000000000002E07D7012E03D7A8
:1003400000001200280E016EFA0E006E0000000080
:10035000000000000000000000000000000000009D
:10036000000000000000000000000000000000008D
:10037000000000000000000000000000000000007D
:10038000000000000000000000000000000000006D
:10039000000000000000000000000000000000005D
:1003A000000000000000000000000000000000004D
:1003B000000000000000000000000000000000003D
:1003C000000000000000000000000000000000002D
:1003D000000000000000000000000000000000001D
:1003E000000000000000000000000000000000000D
:1003F00000000000000000000000000000000000FD
:1004000000000000000000000000000000000000EC
:1004100000000000000000000000000000000000DC
:1004200000000000000000000000000000000000CC
:1004300000000000000000000000000000000000BC
:1004400000000000000000000000000000000000AC
:10045000000000000000000000000000000000009C
:10046000000000000000000000000000000000008C
:10047000000000000000000000000000000000007C
:10048000000000000000000000000000000000006C
:10049000000000000000000000000000000000005C
:1004A000000000000000000000000000000000004C
:1004B000000000000000000000000000000000003C
:1004C000000000000000000000000000000000002C
:1004D000000000000000000000000000000000001C
:1004E000000000000000000000000000000000000C
:1004F00000000000000000000000000000000000FC
:1005000000000000000000000000000000000000EB
:1005100000000000000000000000000000000000DB
:1005200000000000000000000000000000000000CB
:1005300000000000000000000000002E06D6012E82
:0605400002D600001200CB
:00000001FF
